:100000000C94CF000C94F0000C94F0000C94F000D1
:100010000C94F0000C94D8020C94F1020C940A0396
:100020000C9423030C94F0000C94F0000C94F0005A
:100030000C94F0000C94F0000C94F0000C94F00080
:100040000C94F0000C94F0000C94F0000C94F00070
:100050000C94F0000C94F0000C94F0000C94F00060
:100060000C94F0000C94F0000C94F0000C94F00050
:100070000C94F0000C94F0000C94F0000C94F00040
:100080000C94F0000C94F0000C94F0000C94F00030
:100090000C94F0000C94F0000C94F0000C94F00020
:1000A0000C94F0000C94F0000C94F0000C94F00010
:1000B0000C94F0000C94F0000C94F0000C94F00000
:1000C0000C94F0000C94F0000C94F0000C94F000F0
:1000D0000C94F0000C94F0000C94F0000C94F000E0
:1000E0000C94F00006052A05180521052A052A05A5
:1000F0002A052A052A052A052A052A052A052A0588
:100100002A052A05E404ED04F604FD042A052A055F
:100110002A052A052A052A052A052A052A052A0567
:100120002A050F052A057F042A056D042A05760491
:100130002A052A05D2042A05DB048B042A052A0590
:1001400097042A052A0588048E042A0564042A05D2
:100150002A052A052A052A059A042A05AC042A0537
:100160002A052A052A057F042A056D042A05760436
:100170002A052A05BE042A05C7048B042A052A0578
:1001800097042A052A0588048E042A0564042A0592
:100190002A052A052A052A05A3042A05B5041124DF
:1001A0001FBECFEFD1E2DEBFCDBF00E00CBF13E03A
:1001B000A0E0B2E0E0E5F6E100E00BBF02C007908E
:1001C0000D92A830B107D9F713E0A8E0B3E001C061
:1001D0001D92A733B107E1F70E9436010C94260B5C
:1001E0000C9400000F931F938FE193E00E94A20AEA
:1001F0008230910581F489E293E00E94A20A8C0189
:100200008EE293E00E94A20AAC0180912403B8011F
:100210000E94E40306C0019721F4809124030E9408
:100220004A041F910F9108950E940B020E9435020B
:100230000E9432020E94A8020E94AE020E94AB02FB
:100240000E94B1020E9450020E946B020E9487022B
:100250000895F8940E9414010E94B4020E94C602FC
:100260000E94BD020E94CF02789408950F931F93BD
:100270000E9429018AE090E090931703809316036F
:1002800003E20E949A02182F0E94A102133269F51C
:100290008AE193E00E94A20A20911603309117038D
:1002A00082179307E9F420910A0330910B0321157B
:1002B0003105A1F08091080390910903FC01EE0F34
:1002C000FF1FEE0FFF1FE80FF91FE20FF31FE65E9F
:1002D000FC4F108278940E94F200F8940093C600BC
:1002E00010920903109208031BC020910A03309159
:1002F0000B0380910803909109031432B1F4FC01BF
:10030000EE0FFF1FEE0FFF1FE80FF91FE20FF31FA5
:10031000E65EFC4F108201969093090380930803D8
:1003200010920B0310920A03ACCFFC01EE0FFF1FDB
:10033000EE0FFF1FE80FF91FE20FF31FE65EFC4F01
:1003400010832F5F3F4F30930B0320930A0399CF05
:100350001598149A08951498159A08951798169A4E
:1003600008951698179A08951198109A089510985C
:10037000119A08951298139A08951398129A08954D
:100380001498159808951698179808951398129828
:1003900008951198109808951298139A1198109A28
:1003A0001598149A1798169A08951398129A1098F7
:1003B000119A1498159A1698179A08951398129AE4
:1003C0001098119A1598149A1798169A08951498D7
:1003D000159A1698179A1298139A1198109A0895C8
:1003E0001498159A1398129A1798169A1198109AA9
:1003F00008951598149A1698179A1298139A1098A7
:10040000119A089514981598169817981398129899
:10041000119810980895089A099A0A9A0B9AAAE0D6
:10042000B1E08C9188608C938C9180618C93109852
:10043000119812981398EBE0F1E080818860808336
:100440008081806180830C9A0D9A0E9A0F9A8C910C
:1004500080628C9314981598169817988081806202
:10046000808308953B9A4398089581B18F6081B944
:1004700082B1807F82B9EAE0F1E080818863808385
:10048000EBE0F1E08081886380836B9A739A089532
:1004900086B1886088B9089586B1877F88B9089544
:1004A000E1E2F1E010829FEF9093250181E08093DB
:1004B0002401109229019093280110922B0190930E
:1004C0002A0110922D0190932C0189EA809320013A
:1004D0008BE080830895E1E9F0E010829FEF909334
:1004E000950081E080939400109299009093980079
:1004F00089EA809390008BE08083089540932801DF
:1005000020932A018093980060932C010895F89419
:100510001092C50087E48093C400E0ECF0E0808195
:100520008D7F808386E08093C20088E18093C10044
:10053000789408958091C00087FFFCCF8091C60019
:1005400008958093C6008091C00086FFFCCF089577
:100550006C98749A08956D98759A08956E98769A25
:1005600008956F98779A0895F894EAE6F0E080810C
:1005700082608083EC9A78940895F894EAE6F0E03B
:10058000808188608083ED9A78940895F894EAE6F3
:10059000F0E0808180628083EE9A78940895F894E8
:1005A000EAE6F0E0808180688083EF9A789408958D
:1005B0001F920F920FB60F9211248F939F93F8946E
:1005C00080910C0390910D03019690930D038093FD
:1005D0000C0378949F918F910F900FBE0F901F90F6
:1005E00018951F920F920FB60F9211248F939F931D
:1005F000F8948091350390913603019690933603D9
:100600008093350378949F918F910F900FBE0F9038
:100610001F9018951F920F920FB60F9211248F936F
:100620009F93F894809114039091150301969093F1
:1006300015038093140378949F918F910F900FBEB0
:100640000F901F9018951F920F920FB60F921124C2
:100650008F939F93F89480911803909119030196BA
:10066000909319038093180378949F918F910F9022
:100670000FBE0F901F901895EF92FF920F931F934C
:10068000CF93DF93A0E0B0E0BC01CD010E9434081D
:100690002AE939E949E95FE30E9404070E942E052F
:1006A0007B018C0110920D0310920C031092360303
:1006B000109235031092150310921403109219032F
:1006C00010921803C1E0D0E080910C0390910D03CB
:1006D000AA2797FDA095BA2FE816F9060A071B0767
:1006E00030F40E94C901D0931303C0931203809188
:1006F000350390913603AA2797FDA095BA2FE816E7
:10070000F9060A071B0730F40E94C601D093340390
:10071000C09333038091140390911503AA2797FD8A
:10072000A095BA2FE816F9060A071B0730F40E94B5
:10073000C301D0930F03C0930E03809114039091D3
:100740001503AA2797FDA095BA2FE816F9060A0700
:100750001B0730F40E94C001D0931103C093100313
:100760008091120390911303019709F0ADCF80910E
:10077000330390913403019709F0A6CF80910E03C3
:1007800090910F03019709F09FCF809110039091F2
:100790001103019709F098CFDF91CF911F910F912D
:1007A000FF90EF9008950F931F938C018AEF6FEFE6
:1007B0004AEF2AEF0E947E020E94DE01C8010E94D9
:1007C0003C031F910F910895CF92DF92EF92FF9219
:1007D0000F931F93CF93DF93CB018A01BA010E943D
:1007E000C80A6B010E94CC0180E29EE424E131E062
:1007F000F9013197F1F70197D9F784E664E64AEFFA
:100800002AEF0E947E020E94E70180E395E724E13F
:1008100031E0F9013197F1F70197D9F7C0E0D0E065
:1008200078010894E108F10804E111E025C00E9474
:10083000CC018FEF9FEFF8013197F1F70197D9F7CE
:100840000E94D50180E197E2F8013197F1F7019715
:10085000D9F78AEF6AEF44E624E60E947E020E94FE
:10086000DE01C6010E943C0380E29EE4F80131975C
:10087000F1F70197D9F72196CE15DF05C4F20E9452
:100880000202DF91CF911F910F91FF90EF90DF90C7
:10089000CF9008951F93182F0E9402028AEF6FEFE6
:1008A0004AEF2AEF0E947E02812F90E0FC01B1976F
:1008B000ED35F10508F0CEC0EE58FF4FEE0FFF1FEB
:1008C0000590F491E02D19948AEF6FEF4AEF2AEF2B
:1008D0000E947E020E94CC01BFC08AEF6FEF4AEFF8
:1008E0002AEF0E947E020E94D501B6C08AEF6AEF0D
:1008F00046E926E90E947E020E94DE01ADC086E93B
:100900006BE94AEF2AEF0E947E020E94E701A4C031
:100910000E94F001A1C00E94F9019EC080E060E049
:1009200040E020E00E947E020E94020295C00E94E8
:100930004C0292C08AEF6AEF4AEF2AEF0E947E02D1
:100940000E94A8012CC08AEF6AEF4AEF2AEF0E94AA
:100950007E020E94AB0172C08AEF6AEF4AEF2AEF73
:100960000E947E020E94AE014EC08AEF6AEF4AEFFB
:100970002AEF0E947E020E94B10169C08AEF6AEFED
:100980004AEF2AEF0E947E020E94A8012CC08AEF43
:100990006AEF4AEF2AEF0E947E020E94B4010E9491
:1009A000BA015AC08AEF6AEF40E020E00E947E025E
:1009B0000E94AB013AC080E060E04AEF2AEF0E945B
:1009C0007E020E94B7013AC08AEF6AEF4AEF2AEF2F
:1009D0000E947E020E94A8013FC08AEF6AEF4AEFA0
:1009E0002AEF0E947E020E94AE0136C08AEF6AEFB3
:1009F0004AEF2AEF0E947E02D2CF8AEF6AEF4AEFD7
:100A00002AEF0E947E020E94B40126C08AEF6AEF9C
:100A10004AEF2AEF0E947E020E94AB011DC08AEFBE
:100A20006AEF4AEF2AEF0E947E020E94B10114C0D1
:100A30008AEF6AEF4AEF2AEF0E947E020E94BD0110
:100A40000BC08AEF6AEF4AEF2AEF0E947E020E94F3
:100A5000B70102C00E9448021F910895EF92FF92D1
:100A60000F931F937B018C0120E030E040E05FE4B6
:100A70000E94B00788238CF0C801B70120E030E065
:100A800040E05FE40E94A6060E94E0079B01AC01E3
:100A9000205030404040504806C0C801B7010E9475
:100AA000E0079B01AC01B901CA011F910F91FF90B2
:100AB000EF900895A0E0B0E0E0E6F5E00C94EF0AD6
:100AC000DC012B01FA019C91923008F439C1EB0151
:100AD0008881823008F433C1943069F4843009F09D
:100AE0002FC111969C9111978981981709F428C1FB
:100AF000A0E0B2E025C1843009F421C18230A9F41C
:100B0000923009F01DC19A01AD0188E0EA01099017
:100B1000AE01E90109929E018150C1F7E20189818C
:100B200011969C918923818308C1923009F407C1F1
:100B300012962D903C901397EB018A819B8114961D
:100B4000AD90BD90CD90DC901797EC80FD800E812C
:100B50001F819101281B390BB90137FF04C066279B
:100B60007727621B730B603271050CF061C012169F
:100B700013066CF537014801062E04C0969487943D
:100B8000779467940A94D2F721E030E040E050E097
:100B900004C0220F331F441F551F6A95D2F72150FE
:100BA0003040404050402E213F2140235123211509
:100BB00031054105510521F021E030E040E050E0F1
:100BC00079018A01E628F728082919293CC0232B36
:100BD000D1F1260E371E35014601062E04C096942B
:100BE0008794779467940A94D2F721E030E040E04C
:100BF00050E004C0220F331F441F551F6A95D2F7DF
:100C000021503040404050402A213B214C215D2161
:100C1000211531054105510521F021E030E040E08A
:100C200050E059016A01A628B728C828D9280BC066
:100C3000821593052CF01C01AA24BB24650103C076
:100C4000EE24FF24870111969C91D20111968C917C
:100C5000981709F445C0992339F0A80197012A197A
:100C60003B094C095D0906C0A60195012E193F09F3
:100C7000400B510B57FD08C011823382228224831E
:100C80003583468357831DC081E08183338222826E
:100C900088279927DC01821B930BA40BB50B848357
:100CA0009583A683B7830DC0220F331F441F551FA2
:100CB000248335834683578382819381019793836D
:100CC00082832481358146815781DA01C9010197E8
:100CD000A109B1098F5F9F4FAF4FBF4328F30BC0EE
:100CE000918333822282EA0CFB1C0C1D1D1DE482C1
:100CF000F5820683178383E08083248135814681D2
:100D0000578157FF1AC0C901AA2797FDA095BA2F8E
:100D100081709070A070B070569547953795279563
:100D2000822B932BA42BB52B84839583A683B78327
:100D300082819381019693838283DF0101C0D20176
:100D4000CD01CDB7DEB7E2E10C940B0BA0E2B0E031
:100D5000ECEAF6E00C94FB0A69837A838B839C832C
:100D60002D833E834F835887E9E0EE2EF12CEC0E65
:100D7000FD1ECE010196B7010E94D1098E010F5EC2
:100D80001F4FCE010596B8010E94D1098A8991E0D2
:100D900089278A8BC701B801AE01475E5F4F0E9469
:100DA0005A050E94FC08A096E6E00C94170BA0E2FE
:100DB000B0E0EDEDF6E00C94FB0A69837A838B8357
:100DC0009C832D833E834F835887F9E0EF2EF12CCF
:100DD000EC0EFD1ECE010196B7010E94D1098E01D5
:100DE0000F5E1F4FCE010596B8010E94D109C701C1
:100DF000B801AE01475E5F4F0E945A050E94FC0891
:100E0000A096E6E00C94170BA8E1B0E0EAE0F7E06A
:100E10000C94F70A69837A838B839C832D833E83AA
:100E20004F835887B9E0EB2EF12CEC0EFD1ECE015E
:100E30000196B7010E94D1098E010F5E1F4FCE01AE
:100E40000596B8010E94D1092985223008F47EC098
:100E50003989323010F4B8017CC08A859A89892793
:100E60008A87243011F0223031F4231709F06EC044
:100E700060E072E06EC0343039F41D861E861F8635
:100E8000188A1C861B8604C0323021F484E08987CE
:100E9000B7015FC02B853C858B899C89281B390B4A
:100EA0003C872B87ED84FE840F851889AD88BE882A
:100EB000CF88D88CEA14FB040C051D0540F4EE0C19
:100EC000FF1C001F111F215030403C872B8720E062
:100ED00030E040E050E080E090E0A0E0B0E460E08E
:100EE00070E0EA14FB040C051D0540F0282B392B9B
:100EF0004A2B5B2BEA18FB080C091D09B695A79530
:100F000097958795EE0CFF1C001F111F6F5F7F4F99
:100F10006F31710531F7DA01C9018F779070A070D8
:100F2000B07080349105A105B10561F427FD0AC0B8
:100F3000E114F1040105110529F0205C3F4F4F4FEA
:100F40005F4F20782D873E874F87588BBE01675FA4
:100F50007F4FCB010E94FC086896EAE00C94130BCB
:100F6000A8E1B0E0E6EBF7E00C94FB0A69837A8332
:100F70008B839C832D833E834F83588789E0E82EA3
:100F8000F12CEC0EFD1ECE010196B7010E94D10995
:100F90008E010F5E1F4FCE010596B8010E94D10948
:100FA0008985823040F08989823028F0C701B801F4
:100FB0000E94490A01C08FEF6896E6E00C94170B77
:100FC000ACE0B0E0E6EEF7E00C94FF0A69837A83C8
:100FD0008B839C83CE010196BE016B5F7F4F0E9485
:100FE000D1098D81823061F1823050F1843021F459
:100FF0008E81882351F12EC02F81388537FD20C086
:101000006E812F3131051CF06623F9F023C08EE18B
:1010100090E0821B930B29853A854B855C8504C043
:1010200056954795379527958A95D2F76623B1F05F
:1010300050954095309521953F4F4F4F5F4F0EC0D3
:1010400020E030E040E050E009C02FEF3FEF4FEFED
:101050005FE704C020E030E040E050E8B901CA0199
:101060002C96E2E00C941B0BA8E0B0E0EAE3F8E079
:101070000C94F70A7B018C016115710581059105BE
:1010800019F482E0898360C083E089838EE1C82EF1
:10109000D12CDC82CB82ED82FE820F831887C801BF
:1010A000B7010E94AD08FC013197F7FF3BC0222732
:1010B00033272E1B3F0B57016801022E04C0D69424
:1010C000C794B794A7940A94D2F740E050E060E048
:1010D00070E081E090E0A0E0B0E004C0880F991FCC
:1010E000AA1FBB1F2A95D2F70197A109B1098E212A
:1010F0009F21A023B1230097A105B10521F041E074
:1011000050E060E070E04A295B296C297D294D831D
:101110005E836F8378878EE190E08E1B9F0B9C83AC
:101120008B8312C0309781F00E2E04C0EE0CFF1C92
:10113000001F111F0A94D2F7ED82FE820F831887D9
:10114000CE1ADF0ADC82CB821A82CE0101960E947F
:10115000FC082896EAE00C94130BEF92FF920F9391
:101160001F937B018C0180E0E81680E0F80681E0A7
:10117000080780E0180788F48FEFE816F1040105EE
:10118000110531F028F088E090E0A0E0B0E017C051
:1011900080E090E0A0E0B0E012C080E0E81680E0DF
:1011A000F80680E0080781E0180728F088E190E061
:1011B000A0E0B0E004C080E190E0A0E0B0E020E278
:1011C00030E040E050E0281B390B4A0B5B0B04C0B9
:1011D00016950795F794E7948A95D2F7F701E85F9B
:1011E000FD4F8081281B310941095109C9011F9117
:1011F0000F91FF90EF900895DF92EF92FF920F937F
:101200001F93FC01E480F58006811781D1808081E5
:10121000823048F480E090E0A0E1B0E0E82AF92ACA
:101220000A2B1B2BA5C0843009F49FC0823021F407
:10123000EE24FF24870105C0E114F1040105110526
:1012400019F4E0E0F0E096C0628173819FEF6238AC
:1012500079070CF05BC022E83FEF261B370B2A31E1
:1012600031052CF020E030E040E050E02AC0B80129
:10127000A701022E04C076956795579547950A9465
:10128000D2F781E090E0A0E0B0E004C0880F991FA1
:10129000AA1FBB1F2A95D2F70197A109B1098E2178
:1012A0009F21A023B1230097A105B10521F081E082
:1012B00090E0A0E0B0E09A01AB01282B392B4A2B3B
:1012C0005B2BDA01C9018F779070A070B070803409
:1012D0009105A105B10539F427FF09C0205C3F4FF6
:1012E0004F4F5F4F04C0215C3F4F4F4F5F4FE0E0D7
:1012F000F0E02030A0E03A07A0E04A07A0E45A0757
:1013000010F0E1E0F0E079018A0127C06038710552
:1013100064F5FB01E158FF4FD801C7018F7790704A
:10132000A070B07080349105A105B10539F4E7FED5
:101330000DC080E490E0A0E0B0E004C08FE390E056
:10134000A0E0B0E0E80EF91E0A1F1B1F17FF05C042
:1013500016950795F794E794319687E016950795CB
:10136000F794E7948A95D1F705C0EE24FF2487010E
:10137000EFEFF0E06E2F679566276795902F9F77C8
:10138000D794DD24D7948E2F8695492F462B582F3E
:101390005D29B701CA011F910F91FF90EF90DF9077
:1013A0000895FC01DB01408151812281622F6F771A
:1013B00070E0221F2227221F9381892F880F822B02
:1013C000282F30E0991F9927991F11969C93119708
:1013D00021153105A9F5411551056105710511F476
:1013E00082E037C082E89FEF13969C938E9312970A
:1013F0009A01AB0167E0220F331F441F551F6A9506
:10140000D1F783E08C930DC0220F331F441F551F6B
:1014100012968D919C911397019713969C938E939E
:101420001297203080E0380780E0480780E45807B2
:1014300058F314962D933D934D935C93179708950D
:101440002F3F310579F4411551056105710519F4F6
:1014500084E08C93089564FF03C081E08C9312C0F4
:101460001C9210C02F57304013963C932E93129726
:1014700083E08C9387E0440F551F661F771F8A9582
:10148000D1F7706414964D935D936D937C93179789
:1014900008951F93DC01FB019C91923008F447C032
:1014A0008081823008F443C0943051F411961C912D
:1014B000843099F58181682F70E0611B71093FC00C
:1014C000843021F0923031F48230B9F18181882367
:1014D00089F12DC011961C9111978230F1F0818114
:1014E0001817D9F412962D913C911397828193810C
:1014F0008217930794F028173907BCF014968D9142
:101500009D910D90BC91A02D2481358146815781FC
:10151000281739074A075B0718F4112341F00AC05E
:1015200082179307A407B50740F4112319F061E06F
:1015300070E005C06FEF7FEF02C060E070E0CB01AC
:101540001F910895FC0188279927E8942191203262
:10155000E9F3293010F02E30C8F32B3241F02D3250
:1015600039F4689404C00E94C00A820F911D219131
:1015700020532A30C0F31EF4909581959F4F089513
:101580007AE0979F902D879F802D910D11240895CB
:1015900097FB092E07260AD077FD04D00CD006D081
:1015A00000201AF4709561957F4F0895F6F7909595
:1015B00081959F4F0895AA1BBB1B51E107C0AA1F2D
:1015C000BB1FA617B70710F0A61BB70B881F991FE4
:1015D0005A95A9F780959095BC01CD0108952F9259
:1015E0003F924F925F926F927F928F929F92AF92B3
:1015F000BF92CF92DF92EF92FF920F931F93CF9300
:10160000DF93CDB7DEB7CA1BDB0B0FB6F894DEBF96
:101610000FBECDBF19942A88398848885F846E84AC
:101620007D848C849B84AA84B984C884DF80EE8006
:10163000FD800C811B81AA81B981CE0FD11D0FB60F
:10164000F894DEBF0FBECDBFED010895F894FFCF33
:101650000000000000000000000102020303030379
:101660000404040404040404050505050505050532
:101670000505050505050505060606060606060612
:1016800006060606060606060606060606060606FA
:1016900006060606060606060707070707070707E2
:1016A00007070707070707070707070707070707CA
:1016B00007070707070707070707070707070707BA
:1016C00007070707070707070707070707070707AA
:1016D0000707070707070707080808080808080892
:1016E000080808080808080808080808080808087A
:1016F000080808080808080808080808080808086A
:101700000808080808080808080808080808080859
:101710000808080808080808080808080808080849
:101720000808080808080808080808080808080839
:101730000808080808080808080808080808080829
:101740000808080808080808080808080808080819
:08175000080808080808080851
:00000001FF
